{
  "_format": "hh-sol-artifact-1",
  "contractName": "MiniAMM",
  "sourceName": "contract/MiniAMM.sol",
  "abi": [
    {
      "inputs": [
        {
          "internalType": "address",
          "name": "_tokenA",
          "type": "address"
        },
        {
          "internalType": "address",
          "name": "_tokenB",
          "type": "address"
        }
      ],
      "stateMutability": "nonpayable",
      "type": "constructor"
    },
    {
      "anonymous": false,
      "inputs": [
        {
          "indexed": true,
          "internalType": "address",
          "name": "owner",
          "type": "address"
        },
        {
          "indexed": true,
          "internalType": "address",
          "name": "spender",
          "type": "address"
        },
        {
          "indexed": false,
          "internalType": "uint256",
          "name": "value",
          "type": "uint256"
        }
      ],
      "name": "Approval",
      "type": "event"
    },
    {
      "anonymous": false,
      "inputs": [
        {
          "indexed": true,
          "internalType": "address",
          "name": "oldBot",
          "type": "address"
        },
        {
          "indexed": true,
          "internalType": "address",
          "name": "newBot",
          "type": "address"
        }
      ],
      "name": "BotUpdated",
      "type": "event"
    },
    {
      "anonymous": false,
      "inputs": [
        {
          "indexed": true,
          "internalType": "address",
          "name": "provider",
          "type": "address"
        },
        {
          "indexed": false,
          "internalType": "uint256",
          "name": "amountA",
          "type": "uint256"
        },
        {
          "indexed": false,
          "internalType": "uint256",
          "name": "amountB",
          "type": "uint256"
        },
        {
          "indexed": false,
          "internalType": "uint256",
          "name": "liquidity",
          "type": "uint256"
        },
        {
          "indexed": false,
          "internalType": "uint256",
          "name": "timestamp",
          "type": "uint256"
        }
      ],
      "name": "Burn",
      "type": "event"
    },
    {
      "anonymous": false,
      "inputs": [
        {
          "indexed": false,
          "internalType": "uint256",
          "name": "feeA",
          "type": "uint256"
        },
        {
          "indexed": false,
          "internalType": "uint256",
          "name": "feeB",
          "type": "uint256"
        },
        {
          "indexed": false,
          "internalType": "uint256",
          "name": "timestamp",
          "type": "uint256"
        }
      ],
      "name": "FeeCollected",
      "type": "event"
    },
    {
      "anonymous": false,
      "inputs": [
        {
          "indexed": true,
          "internalType": "address",
          "name": "provider",
          "type": "address"
        },
        {
          "indexed": false,
          "internalType": "uint256",
          "name": "amountA",
          "type": "uint256"
        },
        {
          "indexed": false,
          "internalType": "uint256",
          "name": "amountB",
          "type": "uint256"
        },
        {
          "indexed": false,
          "internalType": "uint256",
          "name": "liquidity",
          "type": "uint256"
        },
        {
          "indexed": false,
          "internalType": "uint256",
          "name": "timestamp",
          "type": "uint256"
        }
      ],
      "name": "Mint",
      "type": "event"
    },
    {
      "anonymous": false,
      "inputs": [
        {
          "indexed": false,
          "internalType": "uint256",
          "name": "amountIn",
          "type": "uint256"
        },
        {
          "indexed": false,
          "internalType": "uint256",
          "name": "amountOut",
          "type": "uint256"
        },
        {
          "indexed": false,
          "internalType": "bool",
          "name": "AtoB",
          "type": "bool"
        },
        {
          "indexed": false,
          "internalType": "uint256",
          "name": "timestamp",
          "type": "uint256"
        }
      ],
      "name": "Rebalance",
      "type": "event"
    },
    {
      "anonymous": false,
      "inputs": [
        {
          "indexed": true,
          "internalType": "address",
          "name": "user",
          "type": "address"
        },
        {
          "indexed": false,
          "internalType": "uint256",
          "name": "amountIn",
          "type": "uint256"
        },
        {
          "indexed": false,
          "internalType": "uint256",
          "name": "amountOut",
          "type": "uint256"
        },
        {
          "indexed": false,
          "internalType": "bool",
          "name": "AtoB",
          "type": "bool"
        },
        {
          "indexed": false,
          "internalType": "uint256",
          "name": "timestamp",
          "type": "uint256"
        }
      ],
      "name": "Swap",
      "type": "event"
    },
    {
      "anonymous": false,
      "inputs": [
        {
          "indexed": true,
          "internalType": "address",
          "name": "from",
          "type": "address"
        },
        {
          "indexed": true,
          "internalType": "address",
          "name": "to",
          "type": "address"
        },
        {
          "indexed": false,
          "internalType": "uint256",
          "name": "value",
          "type": "uint256"
        }
      ],
      "name": "Transfer",
      "type": "event"
    },
    {
      "inputs": [],
      "name": "FEE_DENOMINATOR",
      "outputs": [
        {
          "internalType": "uint256",
          "name": "",
          "type": "uint256"
        }
      ],
      "stateMutability": "view",
      "type": "function"
    },
    {
      "inputs": [],
      "name": "FEE_NUMERATOR",
      "outputs": [
        {
          "internalType": "uint256",
          "name": "",
          "type": "uint256"
        }
      ],
      "stateMutability": "view",
      "type": "function"
    },
    {
      "inputs": [],
      "name": "MINIMUM_LIQUIDITY",
      "outputs": [
        {
          "internalType": "uint256",
          "name": "",
          "type": "uint256"
        }
      ],
      "stateMutability": "view",
      "type": "function"
    },
    {
      "inputs": [
        {
          "internalType": "uint256",
          "name": "amountA",
          "type": "uint256"
        },
        {
          "internalType": "uint256",
          "name": "amountB",
          "type": "uint256"
        }
      ],
      "name": "addLiquidity",
      "outputs": [
        {
          "internalType": "uint256",
          "name": "liquidity",
          "type": "uint256"
        }
      ],
      "stateMutability": "nonpayable",
      "type": "function"
    },
    {
      "inputs": [
        {
          "internalType": "address",
          "name": "",
          "type": "address"
        },
        {
          "internalType": "address",
          "name": "",
          "type": "address"
        }
      ],
      "name": "allowance",
      "outputs": [
        {
          "internalType": "uint256",
          "name": "",
          "type": "uint256"
        }
      ],
      "stateMutability": "view",
      "type": "function"
    },
    {
      "inputs": [
        {
          "internalType": "address",
          "name": "spender",
          "type": "address"
        },
        {
          "internalType": "uint256",
          "name": "amount",
          "type": "uint256"
        }
      ],
      "name": "approve",
      "outputs": [
        {
          "internalType": "bool",
          "name": "",
          "type": "bool"
        }
      ],
      "stateMutability": "nonpayable",
      "type": "function"
    },
    {
      "inputs": [
        {
          "internalType": "address",
          "name": "",
          "type": "address"
        }
      ],
      "name": "balanceOf",
      "outputs": [
        {
          "internalType": "uint256",
          "name": "",
          "type": "uint256"
        }
      ],
      "stateMutability": "view",
      "type": "function"
    },
    {
      "inputs": [],
      "name": "bot",
      "outputs": [
        {
          "internalType": "address",
          "name": "",
          "type": "address"
        }
      ],
      "stateMutability": "view",
      "type": "function"
    },
    {
      "inputs": [],
      "name": "compoundFees",
      "outputs": [
        {
          "internalType": "uint256",
          "name": "liquidity",
          "type": "uint256"
        }
      ],
      "stateMutability": "nonpayable",
      "type": "function"
    },
    {
      "inputs": [],
      "name": "decimals",
      "outputs": [
        {
          "internalType": "uint8",
          "name": "",
          "type": "uint8"
        }
      ],
      "stateMutability": "view",
      "type": "function"
    },
    {
      "inputs": [],
      "name": "feeA",
      "outputs": [
        {
          "internalType": "uint256",
          "name": "",
          "type": "uint256"
        }
      ],
      "stateMutability": "view",
      "type": "function"
    },
    {
      "inputs": [],
      "name": "feeB",
      "outputs": [
        {
          "internalType": "uint256",
          "name": "",
          "type": "uint256"
        }
      ],
      "stateMutability": "view",
      "type": "function"
    },
    {
      "inputs": [
        {
          "internalType": "uint256",
          "name": "amountIn",
          "type": "uint256"
        },
        {
          "internalType": "bool",
          "name": "AtoB",
          "type": "bool"
        }
      ],
      "name": "getAmountOut",
      "outputs": [
        {
          "internalType": "uint256",
          "name": "",
          "type": "uint256"
        }
      ],
      "stateMutability": "view",
      "type": "function"
    },
    {
      "inputs": [],
      "name": "getFees",
      "outputs": [
        {
          "internalType": "uint256",
          "name": "",
          "type": "uint256"
        },
        {
          "internalType": "uint256",
          "name": "",
          "type": "uint256"
        }
      ],
      "stateMutability": "view",
      "type": "function"
    },
    {
      "inputs": [],
      "name": "getPrice",
      "outputs": [
        {
          "internalType": "uint256",
          "name": "",
          "type": "uint256"
        }
      ],
      "stateMutability": "view",
      "type": "function"
    },
    {
      "inputs": [],
      "name": "getReserves",
      "outputs": [
        {
          "internalType": "uint256",
          "name": "",
          "type": "uint256"
        },
        {
          "internalType": "uint256",
          "name": "",
          "type": "uint256"
        }
      ],
      "stateMutability": "view",
      "type": "function"
    },
    {
      "inputs": [],
      "name": "name",
      "outputs": [
        {
          "internalType": "string",
          "name": "",
          "type": "string"
        }
      ],
      "stateMutability": "view",
      "type": "function"
    },
    {
      "inputs": [
        {
          "internalType": "uint256",
          "name": "amountIn",
          "type": "uint256"
        },
        {
          "internalType": "bool",
          "name": "AtoB",
          "type": "bool"
        }
      ],
      "name": "rebalance",
      "outputs": [
        {
          "internalType": "uint256",
          "name": "amountOut",
          "type": "uint256"
        }
      ],
      "stateMutability": "nonpayable",
      "type": "function"
    },
    {
      "inputs": [
        {
          "internalType": "uint256",
          "name": "liquidity",
          "type": "uint256"
        }
      ],
      "name": "removeLiquidity",
      "outputs": [
        {
          "internalType": "uint256",
          "name": "amountA",
          "type": "uint256"
        },
        {
          "internalType": "uint256",
          "name": "amountB",
          "type": "uint256"
        }
      ],
      "stateMutability": "nonpayable",
      "type": "function"
    },
    {
      "inputs": [],
      "name": "reserveA",
      "outputs": [
        {
          "internalType": "uint256",
          "name": "",
          "type": "uint256"
        }
      ],
      "stateMutability": "view",
      "type": "function"
    },
    {
      "inputs": [],
      "name": "reserveB",
      "outputs": [
        {
          "internalType": "uint256",
          "name": "",
          "type": "uint256"
        }
      ],
      "stateMutability": "view",
      "type": "function"
    },
    {
      "inputs": [
        {
          "internalType": "address",
          "name": "_bot",
          "type": "address"
        }
      ],
      "name": "setBot",
      "outputs": [],
      "stateMutability": "nonpayable",
      "type": "function"
    },
    {
      "inputs": [
        {
          "internalType": "uint256",
          "name": "amountIn",
          "type": "uint256"
        },
        {
          "internalType": "bool",
          "name": "AtoB",
          "type": "bool"
        }
      ],
      "name": "swap",
      "outputs": [
        {
          "internalType": "uint256",
          "name": "amountOut",
          "type": "uint256"
        }
      ],
      "stateMutability": "nonpayable",
      "type": "function"
    },
    {
      "inputs": [],
      "name": "symbol",
      "outputs": [
        {
          "internalType": "string",
          "name": "",
          "type": "string"
        }
      ],
      "stateMutability": "view",
      "type": "function"
    },
    {
      "inputs": [],
      "name": "tokenA",
      "outputs": [
        {
          "internalType": "contract IERC20",
          "name": "",
          "type": "address"
        }
      ],
      "stateMutability": "view",
      "type": "function"
    },
    {
      "inputs": [],
      "name": "tokenB",
      "outputs": [
        {
          "internalType": "contract IERC20",
          "name": "",
          "type": "address"
        }
      ],
      "stateMutability": "view",
      "type": "function"
    },
    {
      "inputs": [],
      "name": "totalSupply",
      "outputs": [
        {
          "internalType": "uint256",
          "name": "",
          "type": "uint256"
        }
      ],
      "stateMutability": "view",
      "type": "function"
    },
    {
      "inputs": [
        {
          "internalType": "address",
          "name": "to",
          "type": "address"
        },
        {
          "internalType": "uint256",
          "name": "amount",
          "type": "uint256"
        }
      ],
      "name": "transfer",
      "outputs": [
        {
          "internalType": "bool",
          "name": "",
          "type": "bool"
        }
      ],
      "stateMutability": "nonpayable",
      "type": "function"
    },
    {
      "inputs": [
        {
          "internalType": "address",
          "name": "from",
          "type": "address"
        },
        {
          "internalType": "address",
          "name": "to",
          "type": "address"
        },
        {
          "internalType": "uint256",
          "name": "amount",
          "type": "uint256"
        }
      ],
      "name": "transferFrom",
      "outputs": [
        {
          "internalType": "bool",
          "name": "",
          "type": "bool"
        }
      ],
      "stateMutability": "nonpayable",
      "type": "function"
    }
  ],
  "bytecode": "0x60c06040523480156200001157600080fd5b5060405162001e8a38038062001e8a83398101604081905262000034916200012e565b6001600160a01b038216158015906200005557506001600160a01b03811615155b620000975760405162461bcd60e51b815260206004820152600d60248201526c24b73b30b634b2103a37b5b2b760991b60448201526064015b60405180910390fd5b806001600160a01b0316826001600160a01b031603620000e75760405162461bcd60e51b815260206004820152600a60248201526929b0b6b2903a37b5b2b760b11b60448201526064016200008e565b6001600160a01b039182166080521660a052600780546001600160a01b0319163317905562000166565b80516001600160a01b03811681146200012957600080fd5b919050565b600080604083850312156200014257600080fd5b6200014d8362000111565b91506200015d6020840162000111565b90509250929050565b60805160a051611cc6620001c460003960008181610335015281816108670152818161095801528181610e4a015261107501526000818161025e015281816107ce015281816109f101528181610db80152610fe10152611cc66000f3fe608060405234801561001057600080fd5b50600436106101cf5760003560e01c80636b5caec411610104578063b6ba33b2116100a2578063db8d55f111610071578063db8d55f114610417578063dc5fa6c514610422578063dd62ed3e1461042b578063f606abe31461045657600080fd5b8063b6ba33b2146103f3578063b738fd0d14610406578063ba9a7a561461040e578063d73792a91461040e57600080fd5b806398d5fdca116100de57806398d5fdca146103b25780639c8f9f23146103ba5780639cd441da146103cd578063a9059cbb146103e057600080fd5b80636b5caec41461035757806370a082311461036c57806395d89b411461038c57600080fd5b806318160ddd116101715780632aea66051161014b5780632aea6605146102fa578063313ce5671461030d57806341cd47bf146103275780635f64b55b1461033057600080fd5b806318160ddd146102d557806319e36f3b146102de57806323b872dd146102e757600080fd5b80630fc63d10116101ad5780630fc63d101461025957806310814c371461029857806311106ee2146102ab57806315c383db146102cc57600080fd5b806306fdde03146101d45780630902f1ac1461021a578063095ea7b314610236575b600080fd5b6102046040518060400160405280601181526020017026b4b73496a0a6a6902628102a37b5b2b760791b81525081565b60405161021191906119d7565b60405180910390f35b6003546004545b60408051928352602083019190915201610211565b610249610244366004611a3c565b61045f565b6040519015158152602001610211565b6102807f000000000000000000000000000000000000000000000000000000000000000081565b6040516001600160a01b039091168152602001610211565b600754610280906001600160a01b031681565b6102be6102b9366004611a77565b6104cc565b604051908152602001610211565b6102be60055481565b6102be60005481565b6102be60045481565b6102496102f5366004611aa7565b61055a565b6102be610308366004611a77565b610660565b610315601281565b60405160ff9091168152602001610211565b6102be6103e581565b6102807f000000000000000000000000000000000000000000000000000000000000000081565b61036a610365366004611ae3565b610b1c565b005b6102be61037a366004611ae3565b60016020526000908152604090205481565b6102046040518060400160405280600781526020016604d494e492d4c560cc1b81525081565b6102be610c11565b6102216103c8366004611afe565b610c7a565b6102be6103db366004611b17565b610f3d565b6102496103ee366004611a3c565b611241565b6102be610401366004611a77565b6112bf565b6102be61154a565b6102be6103e881565b600554600654610221565b6102be60035481565b6102be610439366004611b39565b600260209081526000928352604080842090915290825290205481565b6102be60065481565b3360008181526002602090815260408083206001600160a01b038716808552925280832085905551919290917f8c5be1e5ebec7d5bd14f71427d1e84f3dd0314c0f7b2291e5b200ac8c7c3b925906104ba9086815260200190565b60405180910390a35060015b92915050565b60008083116104f65760405162461bcd60e51b81526004016104ed90611b6c565b60405180910390fd5b6000808361050957600454600354610510565b6003546004545b909250905060006105236103e587611baa565b9050806105326103e885611baa565b61053c9190611bc1565b6105468284611baa565b6105509190611bd4565b9695505050505050565b6001600160a01b0383166000908152600260209081526040808320338452909152812054600019146105bf576001600160a01b0384166000908152600260209081526040808320338452909152812080548492906105b9908490611bf6565b90915550505b6001600160a01b038416600090815260016020526040812080548492906105e7908490611bf6565b90915550506001600160a01b03831660009081526001602052604081208054849290610614908490611bc1565b92505081905550826001600160a01b0316846001600160a01b0316600080516020611c718339815191528460405161064e91815260200190565b60405180910390a35060019392505050565b600754600090600160a01b900460ff161561068d5760405162461bcd60e51b81526004016104ed90611c09565b6007805460ff60a01b1916600160a01b179055826106bd5760405162461bcd60e51b81526004016104ed90611b6c565b600080836106d0576004546003546106d7565b6003546004545b909250905060006106ea6103e587611baa565b9050806106f96103e885611baa565b6107039190611bc1565b61070d8284611baa565b6107179190611bd4565b9350600084116107695760405162461bcd60e51b815260206004820152601a60248201527f496e73756666696369656e74206f757470757420616d6f756e7400000000000060448201526064016104ed565b8184106107b15760405162461bcd60e51b8152602060048201526016602482015275496e73756666696369656e74206c697175696469747960501b60448201526064016104ed565b8415610941576040516323b872dd60e01b81526001600160a01b037f000000000000000000000000000000000000000000000000000000000000000016906323b872dd9061080790339030908b90600401611c2f565b6020604051808303816000875af1158015610826573d6000803e3d6000fd5b505050506040513d601f19601f8201168201806040525081019061084a9190611c53565b5060405163a9059cbb60e01b8152336004820152602481018590527f00000000000000000000000000000000000000000000000000000000000000006001600160a01b03169063a9059cbb906044016020604051808303816000875af11580156108b8573d6000803e3d6000fd5b505050506040513d601f19601f820116820180604052508101906108dc9190611c53565b5060006103e86108ed886003611baa565b6108f79190611bd4565b9050806005600082825461090b9190611bc1565b909155505060035461093b90610922908990611bc1565b866004546109309190611bf6565b600391909155600455565b50610abc565b6040516323b872dd60e01b81526001600160a01b037f000000000000000000000000000000000000000000000000000000000000000016906323b872dd9061099190339030908b90600401611c2f565b6020604051808303816000875af11580156109b0573d6000803e3d6000fd5b505050506040513d601f19601f820116820180604052508101906109d49190611c53565b5060405163a9059cbb60e01b8152336004820152602481018590527f00000000000000000000000000000000000000000000000000000000000000006001600160a01b03169063a9059cbb906044016020604051808303816000875af1158015610a42573d6000803e3d6000fd5b505050506040513d601f19601f82011682018060405250810190610a669190611c53565b5060006103e8610a77886003611baa565b610a819190611bd4565b90508060066000828254610a959190611bc1565b9091555050600354610aba90610aac908790611bf6565b886004546109309190611bc1565b505b604080518781526020810186905286151581830152426060820152905133917ffcb1b2b5ab53be7a6996938ff51a2e91754922a3d82b4c231db9ffb844872357919081900360800190a250506007805460ff60a01b191690555092915050565b6007546001600160a01b03163314610b695760405162461bcd60e51b815260206004820152601060248201526f13db9b1e4818dd5c9c995b9d08189bdd60821b60448201526064016104ed565b6001600160a01b038116610bb55760405162461bcd60e51b8152602060048201526013602482015272496e76616c696420626f74206164647265737360681b60448201526064016104ed565b6007546040516001600160a01b038084169216907fc9e7d530d582d3d5b6157650000f66e1c1e15182323ec64d987298660b77251e90600090a3600780546001600160a01b0319166001600160a01b0392909216919091179055565b60008060035411610c535760405162461bcd60e51b815260206004820152600c60248201526b4e6f206c697175696469747960a01b60448201526064016104ed565b600354600454610c6b90670de0b6b3a7640000611baa565b610c759190611bd4565b905090565b6007546000908190600160a01b900460ff1615610ca95760405162461bcd60e51b81526004016104ed90611c09565b6007805460ff60a01b1916600160a01b17905582610cfd5760405162461bcd60e51b8152602060048201526011602482015270496e76616c6964206c697175696469747960781b60448201526064016104ed565b6000546003548190610d0f9086611baa565b610d199190611bd4565b92508060045485610d2a9190611baa565b610d349190611bd4565b9150600083118015610d465750600082115b610d925760405162461bcd60e51b815260206004820152601d60248201527f496e73756666696369656e74206c6971756964697479206275726e656400000060448201526064016104ed565b610d9c3385611867565b60405163a9059cbb60e01b8152336004820152602481018490527f00000000000000000000000000000000000000000000000000000000000000006001600160a01b03169063a9059cbb906044016020604051808303816000875af1158015610e09573d6000803e3d6000fd5b505050506040513d601f19601f82011682018060405250810190610e2d9190611c53565b5060405163a9059cbb60e01b8152336004820152602481018390527f00000000000000000000000000000000000000000000000000000000000000006001600160a01b03169063a9059cbb906044016020604051808303816000875af1158015610e9b573d6000803e3d6000fd5b505050506040513d601f19601f82011682018060405250810190610ebf9190611c53565b50610edf83600354610ed19190611bf6565b836004546109309190611bf6565b604080518481526020810184905290810185905242606082015233907f4d667732637549615f3cd28023b13380094dd975c0ac7c1b26916a8b1363b7ec9060800160405180910390a2506007805460ff60a01b191690559092909150565b600754600090600160a01b900460ff1615610f6a5760405162461bcd60e51b81526004016104ed90611c09565b6007805460ff60a01b1916600160a01b1790558215801590610f8c5750600082115b610fca5760405162461bcd60e51b815260206004820152600f60248201526e496e76616c696420616d6f756e747360881b60448201526064016104ed565b6040516323b872dd60e01b81526001600160a01b037f000000000000000000000000000000000000000000000000000000000000000016906323b872dd9061101a90339030908890600401611c2f565b6020604051808303816000875af1158015611039573d6000803e3d6000fd5b505050506040513d601f19601f8201168201806040525081019061105d9190611c53565b506040516323b872dd60e01b81526001600160a01b037f000000000000000000000000000000000000000000000000000000000000000016906323b872dd906110ae90339030908790600401611c2f565b6020604051808303816000875af11580156110cd573d6000803e3d6000fd5b505050506040513d601f19601f820116820180604052508101906110f19190611c53565b506000805490819003611131576103e861111361110e8587611baa565b6118e0565b61111d9190611bf6565b915061112c60016103e8611950565b61116b565b600354611168906111428387611baa565b61114c9190611bd4565b6004546111598487611baa565b6111639190611bd4565b6119bf565b91505b600082116111bb5760405162461bcd60e51b815260206004820152601d60248201527f496e73756666696369656e74206c6971756964697479206d696e74656400000060448201526064016104ed565b6111c53383611950565b6111e4846003546111d69190611bc1565b846004546109309190611bc1565b604080518581526020810185905290810183905242606082015233907f94c792774c59479f7bd68442f3af3691c02123a5aabee8b6f9116d8af8aa66699060800160405180910390a2506007805460ff60a01b1916905592915050565b33600090815260016020526040812080548391908390611262908490611bf6565b90915550506001600160a01b0383166000908152600160205260408120805484929061128f908490611bc1565b90915550506040518281526001600160a01b038416903390600080516020611c71833981519152906020016104ba565b6007546000906001600160a01b031633146113075760405162461bcd60e51b815260206004820152600860248201526713db9b1e48189bdd60c21b60448201526064016104ed565b600754600160a01b900460ff16156113315760405162461bcd60e51b81526004016104ed90611c09565b6007805460ff60a01b1916600160a01b179055826113615760405162461bcd60e51b81526004016104ed90611b6c565b600080836113745760045460035461137b565b6003546004545b9092509050600061138e6103e587611baa565b90508061139d6103e885611baa565b6113a79190611bc1565b6113b18284611baa565b6113bb9190611bd4565b93506000841161140d5760405162461bcd60e51b815260206004820152601a60248201527f496e73756666696369656e74206f757470757420616d6f756e7400000000000060448201526064016104ed565b8184106114555760405162461bcd60e51b8152602060048201526016602482015275496e73756666696369656e74206c697175696469747960501b60448201526064016104ed565b84156114a65760006103e861146b886003611baa565b6114759190611bd4565b905080600560008282546114899190611bc1565b90915550506003546114a090610922908990611bc1565b506114ed565b60006103e86114b6886003611baa565b6114c09190611bd4565b905080600660008282546114d49190611bc1565b90915550506003546114eb90610aac908790611bf6565b505b60408051878152602081018690528615158183015242606082015290517f5201ea1f5990fc7b80b83350923d9cbcb05d4abb793e131de2bcff031828ca4b9181900360800190a150506007805460ff60a01b191690555092915050565b6007546000906001600160a01b031633146115925760405162461bcd60e51b815260206004820152600860248201526713db9b1e48189bdd60c21b60448201526064016104ed565b600754600160a01b900460ff16156115bc5760405162461bcd60e51b81526004016104ed90611c09565b6007805460ff60a01b1916600160a01b1790556005541515806115e157506000600654115b6116235760405162461bcd60e51b8152602060048201526013602482015272139bc81999595cc81d1bc818dbdb5c1bdd5b99606a1b60448201526064016104ed565b60055460065481158015906116385750600081115b1561168a576000600354600454846116509190611baa565b61165a9190611bd4565b905081811161166b57809150611688565b60045460035461167b9084611baa565b6116859190611bd4565b92505b505b60008211801561169a5750600081115b6116dd5760405162461bcd60e51b8152602060048201526014602482015273496e73756666696369656e7420616d6f756e747360601b60448201526064016104ed565b6040805183815260208101839052428183015290517f7fad5a81d69823f1122cb787f4df239f21c141ac1c0ca80596e9752cad12e13f9181900360600190a1816005600082825461172e9190611bf6565b9250508190555080600660008282546117479190611bf6565b9091555050600054600354611777906117608386611baa565b61176a9190611bd4565b6004546111598486611baa565b9350600084116117c95760405162461bcd60e51b815260206004820152601d60248201527f496e73756666696369656e74206c6971756964697479206d696e74656400000060448201526064016104ed565b6007546117df906001600160a01b031685611950565b6117fe836003546117f09190611bc1565b836004546109309190611bc1565b60075460408051858152602081018590529081018690524260608201526001600160a01b03909116907f94c792774c59479f7bd68442f3af3691c02123a5aabee8b6f9116d8af8aa66699060800160405180910390a250506007805460ff60a01b191690555090565b6001600160a01b0382166000908152600160205260408120805483929061188f908490611bf6565b92505081905550806000808282546118a79190611bf6565b90915550506040518181526000906001600160a01b03841690600080516020611c71833981519152906020015b60405180910390a35050565b6000600382111561194157508060006118fa600283611bd4565b611905906001611bc1565b90505b8181101561193b579050806002816119208186611bd4565b61192a9190611bc1565b6119349190611bd4565b9050611908565b50919050565b811561194b575060015b919050565b806000808282546119619190611bc1565b90915550506001600160a01b0382166000908152600160205260408120805483929061198e908490611bc1565b90915550506040518181526001600160a01b03831690600090600080516020611c71833981519152906020016118d4565b60008183106119ce57816119d0565b825b9392505050565b600060208083528351808285015260005b81811015611a04578581018301518582016040015282016119e8565b506000604082860101526040601f19601f8301168501019250505092915050565b80356001600160a01b038116811461194b57600080fd5b60008060408385031215611a4f57600080fd5b611a5883611a25565b946020939093013593505050565b8015158114611a7457600080fd5b50565b60008060408385031215611a8a57600080fd5b823591506020830135611a9c81611a66565b809150509250929050565b600080600060608486031215611abc57600080fd5b611ac584611a25565b9250611ad360208501611a25565b9150604084013590509250925092565b600060208284031215611af557600080fd5b6119d082611a25565b600060208284031215611b1057600080fd5b5035919050565b60008060408385031215611b2a57600080fd5b50508035926020909101359150565b60008060408385031215611b4c57600080fd5b611b5583611a25565b9150611b6360208401611a25565b90509250929050565b6020808252600e908201526d125b9d985b1a5908185b5bdd5b9d60921b604082015260600190565b634e487b7160e01b600052601160045260246000fd5b80820281158282048414176104c6576104c6611b94565b808201808211156104c6576104c6611b94565b600082611bf157634e487b7160e01b600052601260045260246000fd5b500490565b818103818111156104c6576104c6611b94565b6020808252600c908201526b139bc81c99595b9d1c985b9d60a21b604082015260600190565b6001600160a01b039384168152919092166020820152604081019190915260600190565b600060208284031215611c6557600080fd5b81516119d081611a6656feddf252ad1be2c89b69c2b068fc378daa952ba7f163c4a11628f55a4df523b3efa2646970667358221220574458281cf2163702a4e2b74960443620aaad935c73f018ff9a16dc59cb26ae64736f6c63430008140033",
  "linkReferences": {},
  "deployedLinkReferences": {}
}